:100000000C94B6000C94CB000C94CB000C94CB0059
:100010000C94CB000C94CB000C94CB000C94CB0034
:100020000C94CB000C94CB000C94CB000C94CB0024
:100030000C94CB000C94CB000C94CB000C94CB0014
:100040000C94CB000C94CB000C94CB000C94CB0004
:100050000C94CB0005A84CCDB2D44EB93836A902C9
:100060000C50B9918688083CA6AAAA2ABE000000B6
:10007000803F00407A10F35A00A0724E1809001019
:10008000A5D4E80000E87648170000E40B5402000D
:1000900000CA9A3B000000E1F50500008096980038
:1000A000000040420F000000A08601000000102761
:1000B00000000000E80300000000640000000000F1
:1000C0000A00000000000100000000002C76D88823
:1000D000DC674F0823DFC1DFAE59E1B1B796E5E336
:1000E000E453C63AE651997696E8E6C28426EB894F
:1000F0008C9B62ED407C6FFCEFBC9C9F40F2BAA5EC
:100100006FA5F490055A2AF75C936B6CF9676DC183
:100110001BFCE0E40D47FEF520E6B500D0ED902E87
:100120000300943577050080841E080000204E0AE5
:10013000000000C80C333333330F986E1283114123
:10014000EF8D2114893BE65516CFFEE6DB18D184EE
:100150004B381BF77C1D901DA4BBE4242032847215
:100160005E228100C9F124ECA1E53D2711241FBEC8
:10017000CFE5D8E0DEBFCDBF10E0A0E6B0E0E6E717
:10018000F3E102C005900D92AE36B107D9F70E9497
:100190005B010C94B9090C940000959A00C000C052
:1001A0009598089592B3907F92BB92B382958F7089
:1001B000982B92BB0C94CD00CF93C82F949A0E9499
:1001C000D2008C2F8295807F0E94D20088E38A958E
:1001D000F1F700C0CF910895CF93C82F94980E9453
:1001E000D2008C2F8295807F0E94D20083E38A9573
:1001F000F1F700C0CF91089581E00E94EC0083E305
:1002000097E00197F1F7089581B38F6381BB82B3C3
:10021000807C82BB8FEF95E30197F1F700C000006F
:1002200080E30E94D2008FEF91E10197F1F700C0C7
:1002300000000E94CD0089E993E00197F1F700C02A
:100240000E94CD0089E993E00197F1F700C080E2B8
:100250000E94D2008FEF91E10197F1F700C00000FA
:1002600088E20E94EC008CE00E94EC0086E00E9494
:10027000EC000C94FC00623059F018F4613031F05D
:100280000895633039F0643039F00895805805C01E
:10029000805403C0805701C080530C94EC00CF936E
:1002A000DF93EC018991882319F00E94DC00FACFDA
:1002B000DF91CF910895CF93DF93CDB7DEB7C459C7
:1002C000D1090FB6F894DEBF0FBECDBF80EF8ABB59
:1002D0008FEF87BB81BB84BB81BB0E940401CE0131
:1002E00001966C0184E6F60111928A95E9F7812C5A
:1002F000912CE12CF12C5E01F5E7AF0EB11C86B319
:10030000813001F580E490E00E9452091B012C012C
:100310008E010B591F4F23E030E043E050E00E9474
:100320009A060E94FC0062E070E080E090E00E948B
:100330003B01C8010E944F0183EC99E00197F1F75E
:1003400000C0000090E89BBBE7EAF1E63197F1F7C7
:1003500000C0000089B38F70E9F189B38F708130DC
:10036000D9F4F601EE0DFF1D23E62083E2E0F0E074
:10037000EC0FFD1FEE0DFF1D8FE68083E3E0F0E044
:10038000EC0FFD1FEE0DFF1D83E78083882483940F
:10039000912C72E0E72EF12C89B38F70823029F412
:1003A000F601EE0DFF1D93E3908389B38F708430C7
:1003B00029F4F601EE0DFF1D22E3208389B38F702F
:1003C000883029F4F601EE0DFF1D81E380839FEF55
:1003D000E91AF90A80E48BBBE7EAF1E63197F1F715
:1003E00000C0000089B38F70E9F189B38F7081304C
:1003F000D9F4F601EE0DFF1D83E78083E2E0F0E023
:10040000EC0FFD1FEE0DFF1D89E68083E3E0F0E0B9
:10041000EC0FFD1FEE0DFF1D8EE6808342E0842E63
:10042000912C52E0E52EF12C89B38F70823029F4A3
:1004300086E3F601EE0DFF1D808389B38F70843053
:1004400029F485E3F601EE0DFF1D808389B38F70DB
:10045000883029F484E3F601EE0DFF1D8083FFEF61
:10046000EF1AFF0A80E28BBB87EA91E60197F1F76A
:1004700000C0000089B38F7059F189B38F7081304B
:1004800049F48DE2F601EE0DFF1D8083370133E064
:10049000832E912C89B38F70823029F489E3F60181
:1004A000EE0DFF1D808389B38F70843029F488E3BB
:1004B000F601EE0DFF1D808389B38F70883029F41B
:1004C00087E3F601EE0DFF1D80839FEFE91AF90A1D
:1004D00080E18BBBE7EAF1E63197F1F700C000005D
:1004E00089B38F7009F4AEC189B38F70813049F43C
:1004F0008BE2F601EE0DFF1D8083370124E0822E92
:10050000912C89B38F70823009F073C1C4010197B7
:10051000029788F5DE011496F50123E0E21AF1084E
:10052000CF018A199B098E159F051CF48D9181932B
:10053000F7CFCE018B579F4F0E94BA067C01C501B1
:100540000E94BA06E1E08E169104C9F5BC01990F2C
:10055000880B990B0E94AB0423EC35EF48E450E480
:100560000E94760520E030E044E353E40E94370423
:100570000E9432043DC081149104D9F2DE01AB57D0
:10058000BF4FF601CF018C199D09861597051CF404
:1005900081918D93F7CFF3013196EC0DFD1DD501BF
:1005A000E618F70821E0E21AF108CD018A199B0943
:1005B0008E159F050CF0BDCF81918D93F6CFE2E0B3
:1005C0008E16910409F049C0BC01990F880B990B54
:1005D0000E94AB0423EC35EF48E450E40E9476051A
:1005E00020E030E044E353E40E9437040E94E30536
:1005F0001B012C018E010B591F4F23E030E043E01B
:1006000050E00E949A060E94FC0061E070E080E0E9
:1006100090E00E943B0180E690E00E944F0183EC55
:1006200099E00197F1F700C0000061E070E085E01B
:1006300090E00E943B0180E690E00E944F01E3ECD5
:10064000F9E03197F1F700C0000062E070E080E06F
:1006500090E00E943B01C8014AC0E3E08E1691047D
:1006600019F4E81AF90A07C0E4E08E16910409F0BB
:1006700046C0E80EF91EB7010F2C000C880B990B31
:100680000E94AB041B012C014AE050E0BE016B59F3
:100690007F4FC7010E94D8060E94FC0061E070E015
:1006A00080E090E00E943B01CE018B579F4F0E945B
:1006B0004F0183EC99E00197F1F700C0000061E081
:1006C00070E085E090E00E943B01C5010E944F016F
:1006D000E3ECF9E03197F1F700C0000062E070E070
:1006E00080E090E00E943B01CE018B599F4F0E9419
:1006F0004F0183EC99E00197F1F700C00000B201CF
:10070000A10180E490E00E94580919821A821B829C
:100710001C821D821E821F82188619861A861B86DD
:100720001C861D861E861F86188ACB57DF4F1882AF
:10073000C558D040CA57DF4F1882C658D040C95755
:10074000DF4F1882C758D040C857DF4F1882C858AB
:10075000D040C757DF4F1882C958D040C657DF4F27
:100760001882CA58D040C557DF4F1882CB58D040A6
:10077000C457DF4F1882CC58D040F5011082118247
:10078000128213821482158216821782A6961FAED9
:10079000A697A7961FAEA797A8961FAEA897A9964B
:1007A0001FAEA997AA961FAEAA97AB961FAEAB979E
:1007B000AC961FAEAC97AD961FAEAD97AE961FAE82
:1007C000AE97AF961FAEAF97E0961FAEE097E1965B
:1007D0001FAEE197E2961FAEE297E3961FAEE39756
:1007E000E4961FAEE497E5961FAEE597EE24EA94F3
:1007F000FE2C89B38F70843029F480E3F601EE0D6E
:10080000FF1D808389B38F708830A9F40E94FC009B
:1008100019821A821B821C821D821E821F821886E8
:1008200019861A861B861C861D861E861F86188AB8
:10083000EE24EA94FE2CFFEFEF1AFF0AF601EE0D0C
:10084000FF1D108261E070E080E090E00E943B01BB
:10085000C6010E944F0183EC99E00197F1F700C0B7
:1008600000004DCD0E94FF04E3950C9439050E94D1
:100870004B040C9428050E94F60458F00E94EF04E3
:1008800040F029F45F3F29F00C94E60451110C94D8
:1008900070050C94EC040E944D0568F39923B1F3A4
:1008A000552391F3951B550BBB27AA276217730796
:1008B000840738F09F5F5F4F220F331F441FAA1F2A
:1008C000A9F335D00E2E3AF0E0E832D091505040E6
:1008D000E695001CCAF72BD0FE2F29D0660F771F94
:1008E000881FBB1F261737074807AB07B0E809F07A
:1008F000BB0B802DBF01FF2793585F4F3AF09E3FFF
:10090000510578F00C94E6040C9470055F3FE4F315
:10091000983ED4F3869577956795B795F7959F5F41
:10092000C9F7880F911D9695879597F90895E1E08D
:10093000660F771F881FBB1F621773078407BA07EC
:1009400020F0621B730B840BBA0BEE1F88F7E09547
:100950000895E89409C097FB3EF4909580957095B2
:1009600061957F4F8F4F9F4F9923A9F0F92F96E9FB
:10097000BB279395F695879577956795B795F11170
:10098000F8CFFAF4BB0F11F460FF1BC06F5F7F4F0D
:100990008F4F9F4F16C0882311F096E911C077231F
:1009A00021F09EE8872F762F05C0662371F096E828
:1009B000862F70E060E02AF09A95660F771F881FF7
:1009C000DAF7880F9695879597F9089597F99F67B5
:1009D00080E870E060E008959FEF80EC08950024C7
:1009E0000A941616170618060906089500240A9494
:1009F000121613061406050608950C94EC040E94C2
:100A00005505D8F3E894E0E0BB279F57F0F02AEDB6
:100A10003FE049EC06C0EE0FBB0F661F771F881F33
:100A200028F0B23A62077307840728F0B25A620BC3
:100A3000730B840BE3959A9572F7803830F49A958E
:100A4000BB0F661F771F881FD2F790480C94530680
:100A5000092E0394000C11F4882352F0BB0F40F4CC
:100A6000BF2B11F460FF04C06F5F7F4F8F4F9F4F0C
:100A70000895EF93E0FF07C0A2EA2AED3FE049ECBA
:100A80005FEB0E94FC050E9428050F90039401FC77
:100A90009058E4E5F0E00C945F0657FD9058440F41
:100AA000551F59F05F3F71F04795880F97FB991FCD
:100AB00061F09F3F79F0879508951216130614068A
:100AC000551FF2CF4695F1DF08C016161706180617
:100AD000991FF1CF86957105610508940895E894F2
:100AE000BB2766277727CB0197F908950E948905D0
:100AF0000C9428050E94EF0438F00E94F60420F0C0
:100B0000952311F00C94E6040C94EC0411240C943D
:100B100070050E944D0570F3959FC1F3950F50E04D
:100B2000551F629FF001729FBB27F00DB11D639F9F
:100B3000AA27F00DB11DAA1F649F6627B00DA11D45
:100B4000661F829F2227B00DA11D621F739FB00DEB
:100B5000A11D621F839FA00D611D221F749F33275B
:100B6000A00D611D231F849F600D211D822F762FF4
:100B70006A2F11249F5750409AF0F1F088234AF0D1
:100B8000EE0FFF1FBB1F661F771F881F915050403D
:100B9000A9F79E3F510580F00C94E6040C94700573
:100BA0005F3FE4F3983ED4F3869577956795B795C4
:100BB000F795E7959F5FC1F7FE2B880F911D9695DE
:100BC000879597F908959F930E94FF040F9007FC63
:100BD000EE5F0C9439050E94EF0438F00E94F60491
:100BE00020F039F49F3F19F426F40C94EC040EF431
:100BF000E095E7FB0C94E604E92F0E944D0558F3BD
:100C0000BA17620773078407950720F079F4A6F5F1
:100C10000C946F050EF4E0950B2EBA2FA02D0B014E
:100C2000B90190010C01CA01A0011124FF27591B31
:100C300099F0593F50F4503E68F11A16F040A22F37
:100C4000232F342F4427585FF3CF469537952795A8
:100C5000A795F0405395C9F77EF41F16BA0B620BA7
:100C6000730B840BBAF09150A1F0FF0FBB1F661FEE
:100C7000771F881FC2F70EC0BA0F621F731F841F31
:100C800048F4879577956795B795F7959E3F08F057
:100C9000B0CF9395880F08F09927EE0F9795879519
:100CA00008959F3F31F0915020F48795779567958F
:100CB000B795880F911D9695879597F908959F93FD
:100CC0008F937F936F93FF93EF939B01AC010E94EF
:100CD0007605EF91FF910E9473062F913F914F91FE
:100CE0005F910C947605DF93CF931F930F93FF9240
:100CF000EF92DF927B018C01689406C0DA2EEF013F
:100D00000E948905FE01E894A591259135914591B0
:100D10005591A6F3EF010E94FC05FE019701A80181
:100D2000DA9469F7DF90EF90FF900F911F91CF91C8
:100D3000DF910895EF920F931F93CF93DF93E80114
:100D400047FD02C034E001C034E1042E000C550B15
:100D500057FF03C0519541955109E32E022F242FCF
:100D6000AE010E941007CE01DF91CF911F910F912C
:100D7000EF900895FC0188279927E894219120326B
:100D8000E9F3293010F02E30C8F32B3241F02D3228
:100D900039F4689404C00E94EE06820F911D2191DF
:100DA00020532A30C0F31EF4909581959F4F0895EB
:100DB0004532510520F4423010F00C94E306FB015B
:100DC0001082CB010895BB274A3031F4992322F4D5
:100DD000BDE2909581959F4F0C94F7067AE0979F1E
:100DE000902D879F802D910D11240895BB27FB0125
:100DF0005527AA27880F991FAA1FA41710F0A41B14
:100E000083955051B9F7A05DAA3308F0A95DA1936D
:100E1000009779F7B111B1931192CB010C9442096B
:100E2000A9E0B0E0E6E1F7E00C9488096A01122F2E
:100E3000B02E2BE3201720F0FF24F394F00E02C015
:100E40002CE3F22E0F2D27E0AE014F5F5F4F0E9483
:100E50006A08BC014981842F8970813031F0E1FC3E
:100E600006C0E0FE06C090E205C09DE203C09BE222
:100E700001C090E05E2D507143FF3CC0911102C053
:100E800083E001C084E0811718F4212F281B01C0E2
:100E900020E051110BC0F601822F30E2882319F0B7
:100EA00031938150FBCFC20ED11C20E0992329F051
:100EB000D6019C93F60131966F01C6010396E2FEBE
:100EC0000AC03EE4D6013C9341E411964C9311973D
:100ED00012963C9306C03EE6F601308341E641831C
:100EE0003283FC01322F40E2332309F442C04193A4
:100EF0003150FACF42FF44C0911102C083E001C0DB
:100F000084E0811718F4212F281B01C020E0511123
:100F10000BC0F601822F30E2882319F03193815003
:100F2000FBCFC20ED11C20E0992329F0D6019C935F
:100F3000F60131966F01C6010396E2FE0BC039E45B
:100F4000D6013C933EE411963C93119736E41296F9
:100F50003C9307C039E6F60130833EE6318336E63E
:100F60003283FC01322F40E2332319F04193315098
:100F7000FBCFFC01E20FF11D10828EEF9FEFA6C0A8
:100F800021E030E0911102C020E030E01616170693
:100F90001CF4FB01319602C0E1E0F0E02E0F3F1F90
:100FA000BB2021F0EB2DF0E0319602C0E0E0F0E054
:100FB0002E0F3F1FE12FF0E02E173F071CF4121BEE
:100FC000212F01C020E08E2D887159F4F601822F67
:100FD00030E2882319F031938150FBCFC20ED11C2F
:100FE00020E0992329F0D6019C93F60131966F01F8
:100FF00051110BC0F601822F90E3882319F09193D1
:101000008150FBCFC20ED11C20E00F2D060F9A811C
:10101000342F307144FF03C0913309F4015010168E
:1010200024F4093018F008E001C001E0AB0177FFBB
:1010300002C040E050E0FB01E41BF50BA1E0B0E092
:10104000AC0FBD1FEA0FFB1F8EE2A82E4B01801ACA
:1010500091080B2D10E01195019511094F3FBFEF3D
:101060005B0721F4D601AC9211966D0164177507E8
:101070002CF08416950614F4818101C080E3415060
:1010800051093196D60111967D014017510724F080
:10109000D6018C936701E2CF6417750739F4963354
:1010A00020F4953319F4311101C081E3F6018083F6
:1010B000F701822F90E2882319F091938150FBCFA2
:1010C000F701E20FF11D108280E090E02996ECE03C
:1010D0000C94A409283008F027E03327DA01990F8F
:1010E000311D87FD916000966105710539F432600C
:1010F0002E5F3D9330E32A95E1F708959F3F30F04E
:1011000080387105610509F03C5F3C5F3D9391308B
:1011100008F08068911DDF93CF931F930F93FF9288
:10112000EF92192F987F9695E92F96959695E90F4E
:10113000FF27E453FF4F99273327EE24FF24A7010D
:10114000E70105900894079428F4360FE71EF81E6F
:10115000491F511D660F771F881F991F0694A1F71D
:101160000590079428F4E70EF81E491F561FC11D6D
:10117000770F881F991F661F0694A1F705900794A3
:1011800028F4F80E491F561FC71FD11D880F991F3D
:10119000661F771F0694A1F70590079420F4490F66
:1011A000561FC71FD81F990F661F771F881F0694E9
:1011B000A9F784911095177041F0D695C79557956A
:1011C0004795F794E7941A95C1F7E2E7F0E0689441
:1011D0001590159135916591959105907FE27395E4
:1011E000E118F10A430B560BC90BD009C0F7E10C0B
:1011F000F11E431F561FC91FD01D7EF4703311F41A
:101200008A95E6CFE894015030F0080F0AF40027E1
:10121000021708F4202F2395022F7A3328F079E360
:101220007D932A95E9F710C07D932A9589F6069457
:1012300097956795379517951794E118F10A430B21
:10124000560BC90BD00998F023957E9173957A338C
:1012500008F070E37C932013B8F77E9170617D9362
:1012600030F0839571E37D9370E32A95E1F71124C3
:10127000EF90FF900F911F91CF91DF91992787FDFC
:1012800090950895DC01FC01672F71917723E1F7B8
:10129000329704C07C916D9370836291AE17BF0743
:1012A000C8F30895A6E1B0E044E050E00C9467096B
:1012B000242F0E947609252F0E9476090C9460093C
:1012C0000E947509272F0C947609DC01CB01FC01E3
:1012D000E199FECF06C0FFBBEEBBE09A31960DB29E
:1012E0000D9241505040B8F70895262FE199FECF56
:1012F0009FBB8EBB2DBB0FB6F894E29AE19A0FBE4E
:10130000019608952F923F924F925F926F927F9233
:101310008F929F92AF92BF92CF92DF92EF92FF9205
:101320000F931F93CF93DF93CDB7DEB7CA1BDB0BB1
:101330000FB6F894DEBF0FBECDBF09942A88398856
:1013400048885F846E847D848C849B84AA84B9845D
:10135000C884DF80EE80FD800C811B81AA81B98169
:10136000CE0FD11D0FB6F894DEBF0FBECDBFED017D
:061370000895F894FFCF80
:0E1376002020202020202020202020202000C9
:00000001FF
